:100000000C942A000C943C000C943C000C943C0092
:100010000C943C000C943C000C943C000C943C0070
:100020000C943C000C9478000C943C000C943C0024
:100030000C943C000C943C000C943C000C943C0050
:100040000C943C000C943C000C943C000C943C0040
:100050000C943C0011241FBECFE5D4E0DEBFCDBF21
:1000600020E0A0E6B0E001C01D92A336B207E1F7A0
:100070000E9450000C94A1000C940000D09AD19AD8
:10008000D29AD898D998DA9808959BB321E030E0B5
:1000900002C0220F331F8A95E2F729272BBB089550
:1000A0008FB780688FBF0E943E000E9493000E941D
:1000B0005C0080E090E0089580916200843029F433
:1000C00080E00E94450010926200809161008A30B9
:1000D00029F481E00E944500109261008091600047
:1000E000803151F782E00E94450010926000E4CF19
:1000F0001F920F920FB60F9211248F93809162007E
:100100008F5F80936200809161008F5F80936100B8
:10011000809160008F5F809360008F910F900FBE81
:100120000F901F90189512BE89B7816089BF83B761
:10013000806883BF83B7846083BF83B7816083BFD8
:060140000895F894FFCFC2
:00000001FF
